{
  "_format": "hh-sol-artifact-1",
  "contractName": "SpaceVaders",
  "sourceName": "contracts/SpaceVaders.sol",
  "abi": [
    {
      "inputs": [],
      "stateMutability": "payable",
      "type": "constructor"
    },
    {
      "anonymous": false,
      "inputs": [
        {
          "indexed": true,
          "internalType": "address",
          "name": "owner",
          "type": "address"
        },
        {
          "indexed": true,
          "internalType": "address",
          "name": "approved",
          "type": "address"
        },
        {
          "indexed": true,
          "internalType": "uint256",
          "name": "tokenId",
          "type": "uint256"
        }
      ],
      "name": "Approval",
      "type": "event"
    },
    {
      "anonymous": false,
      "inputs": [
        {
          "indexed": true,
          "internalType": "address",
          "name": "owner",
          "type": "address"
        },
        {
          "indexed": true,
          "internalType": "address",
          "name": "operator",
          "type": "address"
        },
        {
          "indexed": false,
          "internalType": "bool",
          "name": "approved",
          "type": "bool"
        }
      ],
      "name": "ApprovalForAll",
      "type": "event"
    },
    {
      "anonymous": false,
      "inputs": [
        {
          "indexed": true,
          "internalType": "address",
          "name": "previousOwner",
          "type": "address"
        },
        {
          "indexed": true,
          "internalType": "address",
          "name": "newOwner",
          "type": "address"
        }
      ],
      "name": "OwnershipTransferred",
      "type": "event"
    },
    {
      "anonymous": false,
      "inputs": [
        {
          "indexed": true,
          "internalType": "address",
          "name": "from",
          "type": "address"
        },
        {
          "indexed": true,
          "internalType": "address",
          "name": "to",
          "type": "address"
        },
        {
          "indexed": true,
          "internalType": "uint256",
          "name": "tokenId",
          "type": "uint256"
        }
      ],
      "name": "Transfer",
      "type": "event"
    },
    {
      "anonymous": false,
      "inputs": [
        {
          "indexed": false,
          "internalType": "address",
          "name": "Minter",
          "type": "address"
        },
        {
          "indexed": false,
          "internalType": "uint256",
          "name": "quantity",
          "type": "uint256"
        },
        {
          "indexed": false,
          "internalType": "uint256",
          "name": "amountMinted",
          "type": "uint256"
        }
      ],
      "name": "mint",
      "type": "event"
    },
    {
      "inputs": [
        {
          "internalType": "uint256",
          "name": "_quantity",
          "type": "uint256"
        }
      ],
      "name": "Mint",
      "outputs": [],
      "stateMutability": "payable",
      "type": "function"
    },
    {
      "inputs": [],
      "name": "Withdraw",
      "outputs": [],
      "stateMutability": "nonpayable",
      "type": "function"
    },
    {
      "inputs": [],
      "name": "amountMinted",
      "outputs": [
        {
          "internalType": "uint256",
          "name": "",
          "type": "uint256"
        }
      ],
      "stateMutability": "view",
      "type": "function"
    },
    {
      "inputs": [
        {
          "internalType": "address",
          "name": "to",
          "type": "address"
        },
        {
          "internalType": "uint256",
          "name": "tokenId",
          "type": "uint256"
        }
      ],
      "name": "approve",
      "outputs": [],
      "stateMutability": "nonpayable",
      "type": "function"
    },
    {
      "inputs": [
        {
          "internalType": "address",
          "name": "owner",
          "type": "address"
        }
      ],
      "name": "balanceOf",
      "outputs": [
        {
          "internalType": "uint256",
          "name": "",
          "type": "uint256"
        }
      ],
      "stateMutability": "view",
      "type": "function"
    },
    {
      "inputs": [
        {
          "internalType": "uint256",
          "name": "tokenId",
          "type": "uint256"
        }
      ],
      "name": "getApproved",
      "outputs": [
        {
          "internalType": "address",
          "name": "",
          "type": "address"
        }
      ],
      "stateMutability": "view",
      "type": "function"
    },
    {
      "inputs": [
        {
          "internalType": "address",
          "name": "owner",
          "type": "address"
        },
        {
          "internalType": "address",
          "name": "operator",
          "type": "address"
        }
      ],
      "name": "isApprovedForAll",
      "outputs": [
        {
          "internalType": "bool",
          "name": "",
          "type": "bool"
        }
      ],
      "stateMutability": "view",
      "type": "function"
    },
    {
      "inputs": [],
      "name": "isMintEnabled",
      "outputs": [
        {
          "internalType": "bool",
          "name": "",
          "type": "bool"
        }
      ],
      "stateMutability": "view",
      "type": "function"
    },
    {
      "inputs": [],
      "name": "maxMintPerWallet",
      "outputs": [
        {
          "internalType": "uint256",
          "name": "",
          "type": "uint256"
        }
      ],
      "stateMutability": "view",
      "type": "function"
    },
    {
      "inputs": [],
      "name": "mintPrice",
      "outputs": [
        {
          "internalType": "uint256",
          "name": "",
          "type": "uint256"
        }
      ],
      "stateMutability": "view",
      "type": "function"
    },
    {
      "inputs": [],
      "name": "name",
      "outputs": [
        {
          "internalType": "string",
          "name": "",
          "type": "string"
        }
      ],
      "stateMutability": "view",
      "type": "function"
    },
    {
      "inputs": [],
      "name": "owner",
      "outputs": [
        {
          "internalType": "address",
          "name": "",
          "type": "address"
        }
      ],
      "stateMutability": "view",
      "type": "function"
    },
    {
      "inputs": [
        {
          "internalType": "uint256",
          "name": "tokenId",
          "type": "uint256"
        }
      ],
      "name": "ownerOf",
      "outputs": [
        {
          "internalType": "address",
          "name": "",
          "type": "address"
        }
      ],
      "stateMutability": "view",
      "type": "function"
    },
    {
      "inputs": [],
      "name": "renounceOwnership",
      "outputs": [],
      "stateMutability": "nonpayable",
      "type": "function"
    },
    {
      "inputs": [
        {
          "internalType": "address",
          "name": "from",
          "type": "address"
        },
        {
          "internalType": "address",
          "name": "to",
          "type": "address"
        },
        {
          "internalType": "uint256",
          "name": "tokenId",
          "type": "uint256"
        }
      ],
      "name": "safeTransferFrom",
      "outputs": [],
      "stateMutability": "nonpayable",
      "type": "function"
    },
    {
      "inputs": [
        {
          "internalType": "address",
          "name": "from",
          "type": "address"
        },
        {
          "internalType": "address",
          "name": "to",
          "type": "address"
        },
        {
          "internalType": "uint256",
          "name": "tokenId",
          "type": "uint256"
        },
        {
          "internalType": "bytes",
          "name": "data",
          "type": "bytes"
        }
      ],
      "name": "safeTransferFrom",
      "outputs": [],
      "stateMutability": "nonpayable",
      "type": "function"
    },
    {
      "inputs": [
        {
          "internalType": "address",
          "name": "operator",
          "type": "address"
        },
        {
          "internalType": "bool",
          "name": "approved",
          "type": "bool"
        }
      ],
      "name": "setApprovalForAll",
      "outputs": [],
      "stateMutability": "nonpayable",
      "type": "function"
    },
    {
      "inputs": [
        {
          "internalType": "string",
          "name": "_baseTokenUri",
          "type": "string"
        }
      ],
      "name": "setBaseTokenUri",
      "outputs": [],
      "stateMutability": "nonpayable",
      "type": "function"
    },
    {
      "inputs": [
        {
          "internalType": "bool",
          "name": "_isMIntEnablee",
          "type": "bool"
        }
      ],
      "name": "setIsMintEnabled",
      "outputs": [],
      "stateMutability": "nonpayable",
      "type": "function"
    },
    {
      "inputs": [
        {
          "internalType": "bytes4",
          "name": "interfaceId",
          "type": "bytes4"
        }
      ],
      "name": "supportsInterface",
      "outputs": [
        {
          "internalType": "bool",
          "name": "",
          "type": "bool"
        }
      ],
      "stateMutability": "view",
      "type": "function"
    },
    {
      "inputs": [],
      "name": "symbol",
      "outputs": [
        {
          "internalType": "string",
          "name": "",
          "type": "string"
        }
      ],
      "stateMutability": "view",
      "type": "function"
    },
    {
      "inputs": [
        {
          "internalType": "uint256",
          "name": "_tokenId",
          "type": "uint256"
        }
      ],
      "name": "tokenURI",
      "outputs": [
        {
          "internalType": "string",
          "name": "",
          "type": "string"
        }
      ],
      "stateMutability": "view",
      "type": "function"
    },
    {
      "inputs": [],
      "name": "totalsupply",
      "outputs": [
        {
          "internalType": "uint256",
          "name": "",
          "type": "uint256"
        }
      ],
      "stateMutability": "view",
      "type": "function"
    },
    {
      "inputs": [
        {
          "internalType": "address",
          "name": "from",
          "type": "address"
        },
        {
          "internalType": "address",
          "name": "to",
          "type": "address"
        },
        {
          "internalType": "uint256",
          "name": "tokenId",
          "type": "uint256"
        }
      ],
      "name": "transferFrom",
      "outputs": [],
      "stateMutability": "nonpayable",
      "type": "function"
    },
    {
      "inputs": [
        {
          "internalType": "address",
          "name": "newOwner",
          "type": "address"
        }
      ],
      "name": "transferOwnership",
      "outputs": [],
      "stateMutability": "nonpayable",
      "type": "function"
    },
    {
      "inputs": [
        {
          "internalType": "address",
          "name": "",
          "type": "address"
        }
      ],
      "name": "walletMints",
      "outputs": [
        {
          "internalType": "uint256",
          "name": "",
          "type": "uint256"
        }
      ],
      "stateMutability": "view",
      "type": "function"
    },
    {
      "inputs": [],
      "name": "withdrawWallet",
      "outputs": [
        {
          "internalType": "address payable",
          "name": "",
          "type": "address"
        }
      ],
      "stateMutability": "view",
      "type": "function"
    }
  ],
  "bytecode": "0x60806040526040518060400160405280600581526020017f73706163650000000000000000000000000000000000000000000000000000008152506040518060400160405280600381526020017f7370630000000000000000000000000000000000000000000000000000000000815250816000908051906020019062000088929190620001be565b508060019080519060200190620000a1929190620001be565b505050620000c4620000b8620000f060201b60201c565b620000f860201b60201c565b66038d7ea4c6800060078190555060646008819055506003600a819055506000600981905550620002d3565b600033905090565b6000600660009054906101000a900473ffffffffffffffffffffffffffffffffffffffff16905081600660006101000a81548173ffffffffffffffffffffffffffffffffffffffff021916908373ffffffffffffffffffffffffffffffffffffffff1602179055508173ffffffffffffffffffffffffffffffffffffffff168173ffffffffffffffffffffffffffffffffffffffff167f8be0079c531659141344cd1fd0a4f28419497f9722a3daafe3b4186f6b6457e060405160405180910390a35050565b828054620001cc906200026e565b90600052602060002090601f016020900481019282620001f057600085556200023c565b82601f106200020b57805160ff19168380011785556200023c565b828001600101855582156200023c579182015b828111156200023b5782518255916020019190600101906200021e565b5b5090506200024b91906200024f565b5090565b5b808211156200026a57600081600090555060010162000250565b5090565b600060028204905060018216806200028757607f821691505b602082108114156200029e576200029d620002a4565b5b50919050565b7f4e487b7100000000000000000000000000000000000000000000000000000000600052602260045260246000fd5b6134ba80620002e36000396000f3fe60806040526004361061019c5760003560e01c8063715018a6116100ec578063a22cb4651161008a578063c87b56dd11610064578063c87b56dd14610581578063e985e9c5146105be578063f0293fd3146105fb578063f2fde38b146106385761019c565b8063a22cb46514610504578063b228d9251461052d578063b88d4fde146105585761019c565b806385d178f4116100c657806385d178f41461045a5780638da5cb5b1461048557806395652cfa146104b057806395d89b41146104d95761019c565b8063715018a6146103ed57806372dd529b146104045780637af284d51461042f5761019c565b8063346de50a1161015957806357ea89b61161013357806357ea89b6146103315780636352211e146103485780636817c76c1461038557806370a08231146103b05761019c565b8063346de50a146102b457806342842e0e146102df5780634de8bcfb146103085761019c565b806301ffc9a7146101a157806306fdde03146101de5780630788370314610209578063081812fc14610225578063095ea7b31461026257806323b872dd1461028b575b600080fd5b3480156101ad57600080fd5b506101c860048036038101906101c391906122cf565b610661565b6040516101d591906128c9565b60405180910390f35b3480156101ea57600080fd5b506101f3610743565b60405161020091906128e4565b60405180910390f35b610223600480360381019061021e9190612366565b6107d5565b005b34801561023157600080fd5b5061024c60048036038101906102479190612366565b6109e9565b6040516102599190612810565b60405180910390f35b34801561026e57600080fd5b506102896004803603810190610284919061226a565b610a2f565b005b34801561029757600080fd5b506102b260048036038101906102ad9190612164565b610b47565b005b3480156102c057600080fd5b506102c9610ba7565b6040516102d691906128c9565b60405180910390f35b3480156102eb57600080fd5b5061030660048036038101906103019190612164565b610bba565b005b34801561031457600080fd5b5061032f600480360381019061032a91906122a6565b610bda565b005b34801561033d57600080fd5b50610346610bff565b005b34801561035457600080fd5b5061036f600480360381019061036a9190612366565b610cd8565b60405161037c9190612810565b60405180910390f35b34801561039157600080fd5b5061039a610d8a565b6040516103a79190612b66565b60405180910390f35b3480156103bc57600080fd5b506103d760048036038101906103d291906120ff565b610d90565b6040516103e49190612b66565b60405180910390f35b3480156103f957600080fd5b50610402610e48565b005b34801561041057600080fd5b50610419610e5c565b6040516104269190612b66565b60405180910390f35b34801561043b57600080fd5b50610444610e62565b6040516104519190612b66565b60405180910390f35b34801561046657600080fd5b5061046f610e68565b60405161047c919061282b565b60405180910390f35b34801561049157600080fd5b5061049a610e8e565b6040516104a79190612810565b60405180910390f35b3480156104bc57600080fd5b506104d760048036038101906104d29190612321565b610eb8565b005b3480156104e557600080fd5b506104ee610ed6565b6040516104fb91906128e4565b60405180910390f35b34801561051057600080fd5b5061052b6004803603810190610526919061222e565b610f68565b005b34801561053957600080fd5b50610542610f7e565b60405161054f9190612b66565b60405180910390f35b34801561056457600080fd5b5061057f600480360381019061057a91906121b3565b610f84565b005b34801561058d57600080fd5b506105a860048036038101906105a39190612366565b610fe6565b6040516105b591906128e4565b60405180910390f35b3480156105ca57600080fd5b506105e560048036038101906105e09190612128565b611062565b6040516105f291906128c9565b60405180910390f35b34801561060757600080fd5b50610622600480360381019061061d91906120ff565b6110f6565b60405161062f9190612b66565b60405180910390f35b34801561064457600080fd5b5061065f600480360381019061065a91906120ff565b61110e565b005b60007f80ac58cd000000000000000000000000000000000000000000000000000000007bffffffffffffffffffffffffffffffffffffffffffffffffffffffff1916827bffffffffffffffffffffffffffffffffffffffffffffffffffffffff1916148061072c57507f5b5e139f000000000000000000000000000000000000000000000000000000007bffffffffffffffffffffffffffffffffffffffffffffffffffffffff1916827bffffffffffffffffffffffffffffffffffffffffffffffffffffffff1916145b8061073c575061073b82611192565b5b9050919050565b60606000805461075290612e17565b80601f016020809104026020016040519081016040528092919081815260200182805461077e90612e17565b80156107cb5780601f106107a0576101008083540402835291602001916107cb565b820191906000526020600020905b8154815290600101906020018083116107ae57829003601f168201915b5050505050905090565b600c60149054906101000a900460ff16610824576040517f08c379a000000000000000000000000000000000000000000000000000000000815260040161081b90612b26565b60405180910390fd5b600a5481600d60003373ffffffffffffffffffffffffffffffffffffffff1673ffffffffffffffffffffffffffffffffffffffff168152602001908152602001600020546108729190612c3a565b11156108b3576040517f08c379a00000000000000000000000000000000000000000000000000000000081526004016108aa90612a26565b60405180910390fd5b600754816108c19190612cc1565b3414610902576040517f08c379a00000000000000000000000000000000000000000000000000000000081526004016108f990612a66565b60405180910390fd5b600854816009546109139190612c3a565b1115610954576040517f08c379a000000000000000000000000000000000000000000000000000000000815260040161094b90612ae6565b60405180910390fd5b60005b818110156109a857600060016009546109709190612c3a565b90506009600081548092919061098590612e7a565b919050555061099433826111fc565b5080806109a090612e7a565b915050610957565b507f156e29f6982eee45771b2862c71c865cb1ed8ec5a0f2c9d0c2cf96b8a8ba8ee333826009546040516109de93929190612892565b60405180910390a150565b60006109f48261121a565b6004600083815260200190815260200160002060009054906101000a900473ffffffffffffffffffffffffffffffffffffffff169050919050565b6000610a3a82610cd8565b90508073ffffffffffffffffffffffffffffffffffffffff168373ffffffffffffffffffffffffffffffffffffffff161415610aab576040517f08c379a0000000000000000000000000000000000000000000000000000000008152600401610aa290612aa6565b60405180910390fd5b8073ffffffffffffffffffffffffffffffffffffffff16610aca611265565b73ffffffffffffffffffffffffffffffffffffffff161480610af95750610af881610af3611265565b611062565b5b610b38576040517f08c379a0000000000000000000000000000000000000000000000000000000008152600401610b2f906129e6565b60405180910390fd5b610b42838361126d565b505050565b610b58610b52611265565b82611326565b610b97576040517f08c379a0000000000000000000000000000000000000000000000000000000008152600401610b8e90612ac6565b60405180910390fd5b610ba28383836113bb565b505050565b600c60149054906101000a900460ff1681565b610bd583838360405180602001604052806000815250610f84565b505050565b610be2611622565b80600c60146101000a81548160ff02191690831515021790555050565b610c07611622565b6000600c60009054906101000a900473ffffffffffffffffffffffffffffffffffffffff1673ffffffffffffffffffffffffffffffffffffffff1647604051610c4f906127fb565b60006040518083038185875af1925050503d8060008114610c8c576040519150601f19603f3d011682016040523d82523d6000602084013e610c91565b606091505b5050905080610cd5576040517f08c379a0000000000000000000000000000000000000000000000000000000008152600401610ccc90612b46565b60405180910390fd5b50565b6000806002600084815260200190815260200160002060009054906101000a900473ffffffffffffffffffffffffffffffffffffffff169050600073ffffffffffffffffffffffffffffffffffffffff168173ffffffffffffffffffffffffffffffffffffffff161415610d81576040517f08c379a0000000000000000000000000000000000000000000000000000000008152600401610d7890612a86565b60405180910390fd5b80915050919050565b60075481565b60008073ffffffffffffffffffffffffffffffffffffffff168273ffffffffffffffffffffffffffffffffffffffff161415610e01576040517f08c379a0000000000000000000000000000000000000000000000000000000008152600401610df8906129c6565b60405180910390fd5b600360008373ffffffffffffffffffffffffffffffffffffffff1673ffffffffffffffffffffffffffffffffffffffff168152602001908152602001600020549050919050565b610e50611622565b610e5a60006116a0565b565b60085481565b60095481565b600c60009054906101000a900473ffffffffffffffffffffffffffffffffffffffff1681565b6000600660009054906101000a900473ffffffffffffffffffffffffffffffffffffffff16905090565b610ec0611622565b8181600b9190610ed1929190611f41565b505050565b606060018054610ee590612e17565b80601f0160208091040260200160405190810160405280929190818152602001828054610f1190612e17565b8015610f5e5780601f10610f3357610100808354040283529160200191610f5e565b820191906000526020600020905b815481529060010190602001808311610f4157829003601f168201915b5050505050905090565b610f7a610f73611265565b8383611766565b5050565b600a5481565b610f95610f8f611265565b83611326565b610fd4576040517f08c379a0000000000000000000000000000000000000000000000000000000008152600401610fcb90612ac6565b60405180910390fd5b610fe0848484846118d3565b50505050565b6060610ff18261192f565b611030576040517f08c379a000000000000000000000000000000000000000000000000000000000815260040161102790612b06565b60405180910390fd5b600b61103b8361199b565b60405160200161104c9291906127cc565b6040516020818303038152906040529050919050565b6000600560008473ffffffffffffffffffffffffffffffffffffffff1673ffffffffffffffffffffffffffffffffffffffff16815260200190815260200160002060008373ffffffffffffffffffffffffffffffffffffffff1673ffffffffffffffffffffffffffffffffffffffff16815260200190815260200160002060009054906101000a900460ff16905092915050565b600d6020528060005260406000206000915090505481565b611116611622565b600073ffffffffffffffffffffffffffffffffffffffff168173ffffffffffffffffffffffffffffffffffffffff161415611186576040517f08c379a000000000000000000000000000000000000000000000000000000000815260040161117d90612926565b60405180910390fd5b61118f816116a0565b50565b60007f01ffc9a7000000000000000000000000000000000000000000000000000000007bffffffffffffffffffffffffffffffffffffffffffffffffffffffff1916827bffffffffffffffffffffffffffffffffffffffffffffffffffffffff1916149050919050565b611216828260405180602001604052806000815250611b48565b5050565b6112238161192f565b611262576040517f08c379a000000000000000000000000000000000000000000000000000000000815260040161125990612a86565b60405180910390fd5b50565b600033905090565b816004600083815260200190815260200160002060006101000a81548173ffffffffffffffffffffffffffffffffffffffff021916908373ffffffffffffffffffffffffffffffffffffffff160217905550808273ffffffffffffffffffffffffffffffffffffffff166112e083610cd8565b73ffffffffffffffffffffffffffffffffffffffff167f8c5be1e5ebec7d5bd14f71427d1e84f3dd0314c0f7b2291e5b200ac8c7c3b92560405160405180910390a45050565b60008061133283610cd8565b90508073ffffffffffffffffffffffffffffffffffffffff168473ffffffffffffffffffffffffffffffffffffffff16148061137457506113738185611062565b5b806113b257508373ffffffffffffffffffffffffffffffffffffffff1661139a846109e9565b73ffffffffffffffffffffffffffffffffffffffff16145b91505092915050565b8273ffffffffffffffffffffffffffffffffffffffff166113db82610cd8565b73ffffffffffffffffffffffffffffffffffffffff1614611431576040517f08c379a000000000000000000000000000000000000000000000000000000000815260040161142890612946565b60405180910390fd5b600073ffffffffffffffffffffffffffffffffffffffff168273ffffffffffffffffffffffffffffffffffffffff1614156114a1576040517f08c379a000000000000000000000000000000000000000000000000000000000815260040161149890612986565b60405180910390fd5b6114ac838383611ba3565b6114b760008261126d565b6001600360008573ffffffffffffffffffffffffffffffffffffffff1673ffffffffffffffffffffffffffffffffffffffff16815260200190815260200160002060008282546115079190612d1b565b925050819055506001600360008473ffffffffffffffffffffffffffffffffffffffff1673ffffffffffffffffffffffffffffffffffffffff168152602001908152602001600020600082825461155e9190612c3a565b92505081905550816002600083815260200190815260200160002060006101000a81548173ffffffffffffffffffffffffffffffffffffffff021916908373ffffffffffffffffffffffffffffffffffffffff160217905550808273ffffffffffffffffffffffffffffffffffffffff168473ffffffffffffffffffffffffffffffffffffffff167fddf252ad1be2c89b69c2b068fc378daa952ba7f163c4a11628f55a4df523b3ef60405160405180910390a461161d838383611ba8565b505050565b61162a611265565b73ffffffffffffffffffffffffffffffffffffffff16611648610e8e565b73ffffffffffffffffffffffffffffffffffffffff161461169e576040517f08c379a000000000000000000000000000000000000000000000000000000000815260040161169590612a46565b60405180910390fd5b565b6000600660009054906101000a900473ffffffffffffffffffffffffffffffffffffffff16905081600660006101000a81548173ffffffffffffffffffffffffffffffffffffffff021916908373ffffffffffffffffffffffffffffffffffffffff1602179055508173ffffffffffffffffffffffffffffffffffffffff168173ffffffffffffffffffffffffffffffffffffffff167f8be0079c531659141344cd1fd0a4f28419497f9722a3daafe3b4186f6b6457e060405160405180910390a35050565b8173ffffffffffffffffffffffffffffffffffffffff168373ffffffffffffffffffffffffffffffffffffffff1614156117d5576040517f08c379a00000000000000000000000000000000000000000000000000000000081526004016117cc906129a6565b60405180910390fd5b80600560008573ffffffffffffffffffffffffffffffffffffffff1673ffffffffffffffffffffffffffffffffffffffff16815260200190815260200160002060008473ffffffffffffffffffffffffffffffffffffffff1673ffffffffffffffffffffffffffffffffffffffff16815260200190815260200160002060006101000a81548160ff0219169083151502179055508173ffffffffffffffffffffffffffffffffffffffff168373ffffffffffffffffffffffffffffffffffffffff167f17307eab39ab6107e8899845ad3d59bd9653f200f220920489ca2b5937696c31836040516118c691906128c9565b60405180910390a3505050565b6118de8484846113bb565b6118ea84848484611bad565b611929576040517f08c379a000000000000000000000000000000000000000000000000000000000815260040161192090612906565b60405180910390fd5b50505050565b60008073ffffffffffffffffffffffffffffffffffffffff166002600084815260200190815260200160002060009054906101000a900473ffffffffffffffffffffffffffffffffffffffff1673ffffffffffffffffffffffffffffffffffffffff1614159050919050565b606060008214156119e3576040518060400160405280600181526020017f30000000000000000000000000000000000000000000000000000000000000008152509050611b43565b600082905060005b60008214611a155780806119fe90612e7a565b915050600a82611a0e9190612c90565b91506119eb565b60008167ffffffffffffffff811115611a57577f4e487b7100000000000000000000000000000000000000000000000000000000600052604160045260246000fd5b6040519080825280601f01601f191660200182016040528015611a895781602001600182028036833780820191505090505b5090505b60008514611b3c57600182611aa29190612d1b565b9150600a85611ab19190612ec3565b6030611abd9190612c3a565b60f81b818381518110611af9577f4e487b7100000000000000000000000000000000000000000000000000000000600052603260045260246000fd5b60200101907effffffffffffffffffffffffffffffffffffffffffffffffffffffffffffff1916908160001a905350600a85611b359190612c90565b9450611a8d565b8093505050505b919050565b611b528383611d44565b611b5f6000848484611bad565b611b9e576040517f08c379a0000000000000000000000000000000000000000000000000000000008152600401611b9590612906565b60405180910390fd5b505050565b505050565b505050565b6000611bce8473ffffffffffffffffffffffffffffffffffffffff16611f1e565b15611d37578373ffffffffffffffffffffffffffffffffffffffff1663150b7a02611bf7611265565b8786866040518563ffffffff1660e01b8152600401611c199493929190612846565b602060405180830381600087803b158015611c3357600080fd5b505af1925050508015611c6457506040513d601f19601f82011682018060405250810190611c6191906122f8565b60015b611ce7573d8060008114611c94576040519150601f19603f3d011682016040523d82523d6000602084013e611c99565b606091505b50600081511415611cdf576040517f08c379a0000000000000000000000000000000000000000000000000000000008152600401611cd690612906565b60405180910390fd5b805181602001fd5b63150b7a0260e01b7bffffffffffffffffffffffffffffffffffffffffffffffffffffffff1916817bffffffffffffffffffffffffffffffffffffffffffffffffffffffff191614915050611d3c565b600190505b949350505050565b600073ffffffffffffffffffffffffffffffffffffffff168273ffffffffffffffffffffffffffffffffffffffff161415611db4576040517f08c379a0000000000000000000000000000000000000000000000000000000008152600401611dab90612a06565b60405180910390fd5b611dbd8161192f565b15611dfd576040517f08c379a0000000000000000000000000000000000000000000000000000000008152600401611df490612966565b60405180910390fd5b611e0960008383611ba3565b6001600360008473ffffffffffffffffffffffffffffffffffffffff1673ffffffffffffffffffffffffffffffffffffffff1681526020019081526020016000206000828254611e599190612c3a565b92505081905550816002600083815260200190815260200160002060006101000a81548173ffffffffffffffffffffffffffffffffffffffff021916908373ffffffffffffffffffffffffffffffffffffffff160217905550808273ffffffffffffffffffffffffffffffffffffffff16600073ffffffffffffffffffffffffffffffffffffffff167fddf252ad1be2c89b69c2b068fc378daa952ba7f163c4a11628f55a4df523b3ef60405160405180910390a4611f1a60008383611ba8565b5050565b6000808273ffffffffffffffffffffffffffffffffffffffff163b119050919050565b828054611f4d90612e17565b90600052602060002090601f016020900481019282611f6f5760008555611fb6565b82601f10611f8857803560ff1916838001178555611fb6565b82800160010185558215611fb6579182015b82811115611fb5578235825591602001919060010190611f9a565b5b509050611fc39190611fc7565b5090565b5b80821115611fe0576000816000905550600101611fc8565b5090565b6000611ff7611ff284612ba6565b612b81565b90508281526020810184848401111561200f57600080fd5b61201a848285612dd5565b509392505050565b60008135905061203181613428565b92915050565b6000813590506120468161343f565b92915050565b60008135905061205b81613456565b92915050565b60008151905061207081613456565b92915050565b600082601f83011261208757600080fd5b8135612097848260208601611fe4565b91505092915050565b60008083601f8401126120b257600080fd5b8235905067ffffffffffffffff8111156120cb57600080fd5b6020830191508360018202830111156120e357600080fd5b9250929050565b6000813590506120f98161346d565b92915050565b60006020828403121561211157600080fd5b600061211f84828501612022565b91505092915050565b6000806040838503121561213b57600080fd5b600061214985828601612022565b925050602061215a85828601612022565b9150509250929050565b60008060006060848603121561217957600080fd5b600061218786828701612022565b935050602061219886828701612022565b92505060406121a9868287016120ea565b9150509250925092565b600080600080608085870312156121c957600080fd5b60006121d787828801612022565b94505060206121e887828801612022565b93505060406121f9878288016120ea565b925050606085013567ffffffffffffffff81111561221657600080fd5b61222287828801612076565b91505092959194509250565b6000806040838503121561224157600080fd5b600061224f85828601612022565b925050602061226085828601612037565b9150509250929050565b6000806040838503121561227d57600080fd5b600061228b85828601612022565b925050602061229c858286016120ea565b9150509250929050565b6000602082840312156122b857600080fd5b60006122c684828501612037565b91505092915050565b6000602082840312156122e157600080fd5b60006122ef8482850161204c565b91505092915050565b60006020828403121561230a57600080fd5b600061231884828501612061565b91505092915050565b6000806020838503121561233457600080fd5b600083013567ffffffffffffffff81111561234e57600080fd5b61235a858286016120a0565b92509250509250929050565b60006020828403121561237857600080fd5b6000612386848285016120ea565b91505092915050565b61239881612d61565b82525050565b6123a781612d4f565b82525050565b6123b681612d73565b82525050565b60006123c782612bec565b6123d18185612c02565b93506123e1818560208601612de4565b6123ea81612fb0565b840191505092915050565b600061240082612bf7565b61240a8185612c1e565b935061241a818560208601612de4565b61242381612fb0565b840191505092915050565b600061243982612bf7565b6124438185612c2f565b9350612453818560208601612de4565b80840191505092915050565b6000815461246c81612e17565b6124768186612c2f565b9450600182166000811461249157600181146124a2576124d5565b60ff198316865281860193506124d5565b6124ab85612bd7565b60005b838110156124cd578154818901526001820191506020810190506124ae565b838801955050505b50505092915050565b60006124eb603283612c1e565b91506124f682612fc1565b604082019050919050565b600061250e602683612c1e565b915061251982613010565b604082019050919050565b6000612531602583612c1e565b915061253c8261305f565b604082019050919050565b6000612554601c83612c1e565b915061255f826130ae565b602082019050919050565b6000612577602483612c1e565b9150612582826130d7565b604082019050919050565b600061259a601983612c1e565b91506125a582613126565b602082019050919050565b60006125bd602983612c1e565b91506125c88261314f565b604082019050919050565b60006125e0603e83612c1e565b91506125eb8261319e565b604082019050919050565b6000612603602083612c1e565b915061260e826131ed565b602082019050919050565b6000612626600c83612c1e565b915061263182613216565b602082019050919050565b6000612649600583612c2f565b91506126548261323f565b600582019050919050565b600061266c602083612c1e565b915061267782613268565b602082019050919050565b600061268f601483612c1e565b915061269a82613291565b602082019050919050565b60006126b2601883612c1e565b91506126bd826132ba565b602082019050919050565b60006126d5602183612c1e565b91506126e0826132e3565b604082019050919050565b60006126f8600083612c13565b915061270382613332565b600082019050919050565b600061271b602e83612c1e565b915061272682613335565b604082019050919050565b600061273e600983612c1e565b915061274982613384565b602082019050919050565b6000612761601483612c1e565b915061276c826133ad565b602082019050919050565b6000612784601483612c1e565b915061278f826133d6565b602082019050919050565b60006127a7600f83612c1e565b91506127b2826133ff565b602082019050919050565b6127c681612dcb565b82525050565b60006127d8828561245f565b91506127e4828461242e565b91506127ef8261263c565b91508190509392505050565b6000612806826126eb565b9150819050919050565b6000602082019050612825600083018461239e565b92915050565b6000602082019050612840600083018461238f565b92915050565b600060808201905061285b600083018761239e565b612868602083018661239e565b61287560408301856127bd565b818103606083015261288781846123bc565b905095945050505050565b60006060820190506128a7600083018661239e565b6128b460208301856127bd565b6128c160408301846127bd565b949350505050565b60006020820190506128de60008301846123ad565b92915050565b600060208201905081810360008301526128fe81846123f5565b905092915050565b6000602082019050818103600083015261291f816124de565b9050919050565b6000602082019050818103600083015261293f81612501565b9050919050565b6000602082019050818103600083015261295f81612524565b9050919050565b6000602082019050818103600083015261297f81612547565b9050919050565b6000602082019050818103600083015261299f8161256a565b9050919050565b600060208201905081810360008301526129bf8161258d565b9050919050565b600060208201905081810360008301526129df816125b0565b9050919050565b600060208201905081810360008301526129ff816125d3565b9050919050565b60006020820190508181036000830152612a1f816125f6565b9050919050565b60006020820190508181036000830152612a3f81612619565b9050919050565b60006020820190508181036000830152612a5f8161265f565b9050919050565b60006020820190508181036000830152612a7f81612682565b9050919050565b60006020820190508181036000830152612a9f816126a5565b9050919050565b60006020820190508181036000830152612abf816126c8565b9050919050565b60006020820190508181036000830152612adf8161270e565b9050919050565b60006020820190508181036000830152612aff81612731565b9050919050565b60006020820190508181036000830152612b1f81612754565b9050919050565b60006020820190508181036000830152612b3f81612777565b9050919050565b60006020820190508181036000830152612b5f8161279a565b9050919050565b6000602082019050612b7b60008301846127bd565b92915050565b6000612b8b612b9c565b9050612b978282612e49565b919050565b6000604051905090565b600067ffffffffffffffff821115612bc157612bc0612f81565b5b612bca82612fb0565b9050602081019050919050565b60008190508160005260206000209050919050565b600081519050919050565b600081519050919050565b600082825260208201905092915050565b600081905092915050565b600082825260208201905092915050565b600081905092915050565b6000612c4582612dcb565b9150612c5083612dcb565b9250827fffffffffffffffffffffffffffffffffffffffffffffffffffffffffffffffff03821115612c8557612c84612ef4565b5b828201905092915050565b6000612c9b82612dcb565b9150612ca683612dcb565b925082612cb657612cb5612f23565b5b828204905092915050565b6000612ccc82612dcb565b9150612cd783612dcb565b9250817fffffffffffffffffffffffffffffffffffffffffffffffffffffffffffffffff0483118215151615612d1057612d0f612ef4565b5b828202905092915050565b6000612d2682612dcb565b9150612d3183612dcb565b925082821015612d4457612d43612ef4565b5b828203905092915050565b6000612d5a82612dab565b9050919050565b6000612d6c82612dab565b9050919050565b60008115159050919050565b60007fffffffff0000000000000000000000000000000000000000000000000000000082169050919050565b600073ffffffffffffffffffffffffffffffffffffffff82169050919050565b6000819050919050565b82818337600083830152505050565b60005b83811015612e02578082015181840152602081019050612de7565b83811115612e11576000848401525b50505050565b60006002820490506001821680612e2f57607f821691505b60208210811415612e4357612e42612f52565b5b50919050565b612e5282612fb0565b810181811067ffffffffffffffff82111715612e7157612e70612f81565b5b80604052505050565b6000612e8582612dcb565b91507fffffffffffffffffffffffffffffffffffffffffffffffffffffffffffffffff821415612eb857612eb7612ef4565b5b600182019050919050565b6000612ece82612dcb565b9150612ed983612dcb565b925082612ee957612ee8612f23565b5b828206905092915050565b7f4e487b7100000000000000000000000000000000000000000000000000000000600052601160045260246000fd5b7f4e487b7100000000000000000000000000000000000000000000000000000000600052601260045260246000fd5b7f4e487b7100000000000000000000000000000000000000000000000000000000600052602260045260246000fd5b7f4e487b7100000000000000000000000000000000000000000000000000000000600052604160045260246000fd5b6000601f19601f8301169050919050565b7f4552433732313a207472616e7366657220746f206e6f6e20455243373231526560008201527f63656976657220696d706c656d656e7465720000000000000000000000000000602082015250565b7f4f776e61626c653a206e6577206f776e657220697320746865207a65726f206160008201527f6464726573730000000000000000000000000000000000000000000000000000602082015250565b7f4552433732313a207472616e736665722066726f6d20696e636f72726563742060008201527f6f776e6572000000000000000000000000000000000000000000000000000000602082015250565b7f4552433732313a20746f6b656e20616c7265616479206d696e74656400000000600082015250565b7f4552433732313a207472616e7366657220746f20746865207a65726f2061646460008201527f7265737300000000000000000000000000000000000000000000000000000000602082015250565b7f4552433732313a20617070726f766520746f2063616c6c657200000000000000600082015250565b7f4552433732313a2061646472657373207a65726f206973206e6f74206120766160008201527f6c6964206f776e65720000000000000000000000000000000000000000000000602082015250565b7f4552433732313a20617070726f76652063616c6c6572206973206e6f7420746f60008201527f6b656e206f776e6572206e6f7220617070726f76656420666f7220616c6c0000602082015250565b7f4552433732313a206d696e7420746f20746865207a65726f2061646472657373600082015250565b7f6d6178696d756d20697320330000000000000000000000000000000000000000600082015250565b7f2e6a736f6e000000000000000000000000000000000000000000000000000000600082015250565b7f4f776e61626c653a2063616c6c6572206973206e6f7420746865206f776e6572600082015250565b7f696e73756666696369656e742062616c616e6365000000000000000000000000600082015250565b7f4552433732313a20696e76616c696420746f6b656e2049440000000000000000600082015250565b7f4552433732313a20617070726f76616c20746f2063757272656e74206f776e6560008201527f7200000000000000000000000000000000000000000000000000000000000000602082015250565b50565b7f4552433732313a2063616c6c6572206973206e6f7420746f6b656e206f776e6560008201527f72206e6f7220617070726f766564000000000000000000000000000000000000602082015250565b7f736f6c64206f7574210000000000000000000000000000000000000000000000600082015250565b7f746f6b656e20646f6573206e6f74206578697374000000000000000000000000600082015250565b7f6d696e74206973206e6f7420656e61626c656421000000000000000000000000600082015250565b7f7769746864726177206661696c65640000000000000000000000000000000000600082015250565b61343181612d4f565b811461343c57600080fd5b50565b61344881612d73565b811461345357600080fd5b50565b61345f81612d7f565b811461346a57600080fd5b50565b61347681612dcb565b811461348157600080fd5b5056fea26469706673582212203226cfcb9a8fa317fbef3067e1249d00d2a87e0857cfa7dab573808f872324e564736f6c63430008010033",
  "linkReferences": {},
  "deployedLinkReferences": {}
}